:020000040800F2
:10000000680A0020CD010008890400088104000866
:1000100085040008170300086106000800000000BE
:10002000000000000000000000000000AD04000817
:100030001B030008000000008B040008C105000835
:10004000E7010008E7010008E7010008E7010008F0
:10005000E7010008E7010008E7010008E7010008E0
:10006000E7010008E7010008E7010008E7010008D0
:10007000E7010008E7010008E7010008E7010008C0
:10008000E7010008E7010008E7010008E7010008B0
:10009000E7010008E7010008E7010008E7010008A0
:1000A000E7010008E7010008E7010008E701000890
:1000B000E7010008E7010008E7010008E701000880
:1000C000E7010008E7010008E7010008E701000870
:1000D000E7010008E7010008E7010008E701000860
:1000E000E7010008E7010008E7010008E701000850
:1000F000E7010008E7010008E7010008E701000840
:10010000E7010008E7010008E7010008E70100082F
:10011000E7010008E7010008E7010008E70100081F
:10012000E7010008E7010008E7010008E70100080F
:1001300000F002F800F03AF80AA090E8000C8244BF
:100140008344AAF10107DA4501D100F02FF8AFF29C
:10015000090EBAE80F0013F0010F18BFFB1A43F0A5
:10016000010318475C1B00007C1B0000103A24BFF1
:1001700078C878C1FAD8520724BF30C830C144BF0C
:1001800004680C607047000000230024002500264E
:10019000103A28BF78C1FBD8520728BF30C148BFEA
:1001A0000B6070471FB51FBD10B510BD00F07AF889
:1001B0001146FFF7F7FF00F033FB00F098F803B4A7
:1001C000FFF7F2FF03BC00F09FF8000009488047EA
:1001D00009480047FEE7FEE7FEE7FEE7FEE7FEE729
:1001E000FEE7FEE7FEE7FEE704480549054A064B41
:1001F0007047000001060008310100086804002073
:10020000680A002068060020680600204FF00002FF
:100210000429C0F0128010F0030C00F01B80CCF118
:10022000040CBCF1020F18BF00F8012BA8BF20F886
:10023000022BA1EB0C0100F00DB85FEAC17C24BFDA
:1002400000F8012B00F8012B48BF00F8012B704784
:100250004FF0000200B5134694469646203922BF5F
:10026000A0E80C50A0E80C50B1F12001BFF4F7AFAA
:10027000090728BFA0E80C5048BF0CC05DF804EB8C
:10028000890028BF40F8042B08BF704748BF20F8FA
:10029000022B11F0804F18BF00F8012B70477047F8
:1002A00070477047754600F02BF8AE46050069466A
:1002B000534620F00700854618B020B5FFF794FF9D
:1002C000BDE820404FF000064FF000074FF0000857
:1002D0004FF0000B21F00701AC46ACE8C009ACE8D8
:1002E000C009ACE8C009ACE8C0098D46704710B53C
:1002F0000446AFF300802046BDE81040FFF75FBF23
:10030000004870470404002001491820ABBEFEE7F6
:1003100026000200704700BFFEE7704700B50346A5
:1003200003E04FF47A7000F005F8181EA3F1010302
:10033000F7D100BD00EBC001C9004FF0E0225161D0
:10034000002191610521116100BF4FF0E021096991
:1003500001F480310029F8D004214FF0E02211612E
:1003600070472DE9F04102460025002600200023B9
:100370000024002791F803C00CF00F0591F803C08A
:100380000CF0100CBCF1000F03D091F802C04CEA45
:10039000050591F800C0BCF1000F31D014680020B1
:1003A0002BE04FF0010C0CFA00F3B1F800C00CEA9E
:1003B00003069E4220D183004FF00F0C0CFA03F786
:1003C000BC4305FA03FC4CEA040491F803C0BCF1F9
:1003D000280F06D14FF0010C0CFA00FCC2F814C033
:1003E0000AE091F803C0BCF1480F05D14FF0010CB1
:1003F0000CFA00FCC2F810C0401C0828D1D31460CD
:10040000B1F800C0BCF1FF0F34DD546800202EE0CD
:1004100000F1080C4FF0010808FA0CF3B1F800C025
:100420000CEA03069E4221D183004FF00F0C0CFA18
:1004300003F7BC4305FA03FC4CEA040491F803C03B
:10044000BCF1280F05D100F1080C08FA0CF8C2F82D
:10045000148091F803C0BCF1480F07D100F1080CDB
:100460004FF0010808FA0CF8C2F81080401C082868
:10047000CED35460BDE8F08141617047016170479F
:1004800000BFFEE700BFFEE77047704729B1064A8C
:1004900092690243044B9A6104E0034A92698243E1
:1004A000014B9A617047000000100240704710B580
:1004B00000F002F810BD00000CB500200190009083
:1004C0003348006840F480303149086000BF30484C
:1004D000006800F4003000900198401C01900098E2
:1004E00018B90198B0F5A06FF1D12948006800F45F
:1004F000003010B10120009001E000200090009831
:10050000012843D12348006840F0100021490860C9
:100510000846006820F0030008600846006840F0C4
:10052000020008601A484068194948600846406857
:1005300048600846406840F480604860084640686B
:1005400020F47C1048600846406840F4E810486099
:100550000846006840F08070086000BF0C480068E2
:1005600000F000700028F9D00948406820F003002E
:10057000074948600846406840F00200486000BFF4
:100580000348406800F00C000828F9D10CBD0000B9
:100590000010024000200240042808D14FF0E02162
:1005A000096941F004014FF0E022116107E04FF0CA
:1005B000E021096921F004014FF0E0221161704748
:1005C0007047000010B504466FF00400FFF7E4FF29
:1005D000E11704EB5171C1F3C701074A11701046CE
:1005E000007800EB4001C1EBC0104FF6FF7101EA4B
:1005F000C0000249088010BD000000200200002059
:1006000010B51348006840F0010011490860084621
:100610004068104908400E494860084600680E4985
:1006200008400B4908600846006820F480200860F4
:100630000846406820F4FE0048604FF41F008860C0
:10064000FFF735FF4FF000600449086010BD00005F
:10065000001002400000FFF8FFFFF6FE08ED00E08A
:1006600000BFFEE708B501210820FFF70FFF1420A7
:100670008DF8030003208DF80200C020ADF80000C3
:1006800069460248FFF76DFE08BD0000000C0140FE
:1006900010B5044600224C21204601F02FFA10BD6F
:1006A00010B5044600224D21204601F027FA10BD66
:1006B00010B504462068427B2D21204601F01EFA29
:1006C00010BD10B5044601224C21204601F016FA57
:1006D00001224D21204601F011FA2046FFF7E8FFE4
:1006E00010BD10B50446204600F01BF82046FFF769
:1006F000DFFF204600F00AF8204600F012F82046FE
:10070000FFF7D6FF2046FFF7C3FF10BD10B5044624
:1007100001224C21204601F0F1F92046FFF7C8FFE5
:1007200010BD10B5044601224D21204601F0E6F926
:1007300010BD10B5044694F8250040B12046FFF7DF
:10074000F0FF2046FFF7B4FF2046FFF7DFFF20460B
:10075000FFF7E7FF2046FFF7A3FF2046FFF7A8FFBC
:100760002046FFF795FF012084F8250010BD10B545
:1007700004462046FFF794FF2046FFF799FF2046E6
:10078000FFF7C4FF2046FFF7CCFF2046FFF790FF9E
:10079000002084F8250010BD70B505460C461CB13C
:1007A0002846FFF7BEFF02E02846FFF779FF2846FC
:1007B000FFF77EFF2846FFF7A9FF2846FFF768FFEF
:1007C00070BD70B505460C4604F080012846FFF761
:1007D000E3FF04F040012846FFF7DEFF04F02001AC
:1007E0002846FFF7D9FF04F010012846FFF7D4FF91
:1007F00004F008012846FFF7CFFF04F00401284663
:10080000FFF7CAFF04F002012846FFF7C5FF04F016
:1008100001012846FFF7C0FF2846FFF762FF70BDC1
:10082000A6B04820FFF7CEFE01A800F067FD0EE05D
:1008300001A800F0CDF800BF05A30822152101A8EA
:1008400000F0B4F801A800F0EDF80028F4D1EFE7CB
:100850003800000070B504462068057C94F8380024
:100860004543ED002946606BFFF7D0FC70BD2DE9D4
:10087000F04104460D4616461F467020005D30B11B
:1008800001280AD002280ED0032818D111E02046F2
:10089000E16D8847304486B211E02046E16D88471B
:1008A000281A85B20BE02046E16D8847301A86B2DF
:1008B00005E02046E16D8847284485B200BF00BFAF
:1008C0003B4632462946204600F03DFCBDE8F0811B
:1008D0007FB582B004460A9D94F88C00002863D04E
:1008E000BDF8140000285FD0BDF8140001281CDDFD
:1008F000022D0CD1BDF80C00BDF81410401A80B2C6
:100900000390BDF80C00401C80B203900DE0032D55
:100910000BD1BDF81000BDF81410401A80B204903D
:10092000BDF81000401C80B2049005F00105C5B967
:10093000B4F84C00BDF81010884201DD06B070BD5F
:10094000B4F84E00BDF81010884200DCF6E7B4F8A9
:100950004A30B4F8482005A903A800F05EF9C0B9F0
:10096000ECE7B4F84800BDF80C10884200DDE5E77C
:10097000B4F84A00BDF80C10884200DCDEE7B4F899
:100980004E30B4F84C2005A904A800F046F900B98F
:10099000D4E70095206BBDF81430BDF81020BDF8E9
:1009A0000C1086682046B04700BFC7E72DE9F0412C
:1009B00004460D4616461F46044860603B463246D4
:1009C0002946204600F028FABDE8F08123170008E8
:1009D00010B5044694F8930010B12046FFF73AFF93
:1009E0000021204600F03EF810BD2DE9F0410446FC
:1009F0000D4616461F46DDF81880B4F84E10B4F8C0
:100A00004C004346324600F097FC10B90020BDE888
:100A1000F081B4F84A10B4F848003B462A4600F08A
:100A20008BFCF4E770B50446204600F01DFD94F8F9
:100A3000395094F838002844C5B22068407CA84258
:100A400004DC204600F01CFE002070BD94F89300EA
:100A500010B12046FFF7FEFE2946204600F002F8BE
:100A60000120F2E770B504460D4684F83950206B3A
:100A7000016820468847206B41682046884770BD42
:100A80000149C16570470000A90E000810B5044671
:100A9000002030342084A0844FF6FF706084E0840E
:100AA00054F8300941682046884710BD2DE9F041CF
:100AB00004460D4616461F46DDF818800020A06546
:100AC000E762656384F8386084F8390000216D209E
:100AD000015500207434607760760120A077E077BC
:100AE00044F8448C54F8440C743C01682046884710
:100AF0002046FFF7CBFF2046FFF7C2FF0021702002
:100B00000155BDE8F08100002DE9FC4107460C4687
:100B100015461E462B460A4A0A493846009600F0FA
:100B2000CCFD01A800F098FC8046074B00949DF88E
:100B3000042041463846FFF7B9FFBDE8FC810000BC
:100B4000E11700089D1900086913000810B523B1CA
:100B5000012B05D0022B09D105E04418A0B208E012
:100B6000841AA0B205E0441AA0B202E08418A0B230
:100B700000BF00BF10BD10B523B1012B05D0022B63
:100B800009D105E08418A0B208E04418A0B205E03D
:100B9000841AA0B202E0441AA0B200BF00BF10BD88
:100BA00038B504465034E08800906388A28834F851
:100BB00050192046FFF719FF18B9002084F88C005F
:100BC0002AE0012084F88C00B4F84800B4F85010F2
:100BD000884203DAB4F85000A4F84800B4F84A0098
:100BE000B4F85210884203DDB4F85200A4F84A0069
:100BF000B4F84C00B4F85410884203DAB4F8540046
:100C0000A4F84C00B4F84E00B4F85610884203DD46
:100C1000B4F85600A4F84E0038BD70B505460E462F
:100C2000144629880A463088104482B2914206DD73
:100C3000994203DA1A46501E82B200E021469942D8
:100C400001DB002070BDA24201DC0020FAE7A142D6
:100C500000DA21469A4200DD1A462980501A82B2F3
:100C600032800120EEE72DE9F84304460E46154692
:100C70001F46DDF82080E08F281A85B2CDF800806D
:100C80003B462A4631462046D4F82CC0E047BDE812
:100C9000F8832DE9F84305460E4691461F46DDF8D8
:100CA0002080B5F84440A01B84B208F0010010B9C0
:100CB000E01B84B201E0601E84B23B464A462146F6
:100CC0002846CDF80080FFF7CEFFBDE8F8832DE978
:100CD000F84304460D4616461F46DDF820803B4685
:100CE000324629462046CDF80080FFF7BCFFBDE81C
:100CF000F8832DE9F84F06460F46904699460A9D1F
:100D0000BA46B6F84640A4EB080084B2601E84B22E
:100D1000681CC5B2022D05D1A4EB090084B2601C89
:100D200084B200254B465246214630460095FFF7D7
:100D30009AFFBDE8F88F2DE9F84F0646894692469E
:100D40001F46DDF82880B6F84650A5EB0A0085B2AC
:100D5000B6F84440A4EB090084B2B8F1000F04D106
:100D6000681E85B2E01B84B206E0B8F1010F03D122
:100D7000601E84B2E81B85B23B462A4621463046B7
:100D8000CDF80080FFF76FFFBDE8F88F2DE9F84F31
:100D900005460E4617469846DDF82890BA46B5F83F
:100DA0004440A01B84B2B9F1000F09D1601E84B287
:100DB000A4EB080084B2601C84B24FF0010903E088
:100DC000601E84B24FF00009434622465146284631
:100DD000CDF80090FFF747FFBDE8F88F2DE9F84305
:100DE0000546894616461F46DDF82080B5F8464080
:100DF000A01B84B208F0010010B1E01B84B201E036
:100E0000601E84B23B46224649462846CDF8008003
:100E1000FFF729FFBDE8F8832DE9F04706460F46A6
:100E200090469946304600F076FE4FF0000A00BF2B
:100E300099F8001030467268904705464FF6FF71EA
:100E40008D4200D12CE009F101094FF6FE70854278
:100E5000EED02B46424639463046FFF708FD0446A1
:100E60007020805D30B1012807D002280AD0032805
:100E700010D10AE0381987B20CE008EB04001FFA21
:100E800080F807E0381B87B204E0A8EB04001FFAE3
:100E900080F800BF00BF0AEB04001FFA80FAC7E722
:100EA00000BF5046BDE8F087014600207047F0B50E
:100EB00007460C462146384600F00BF845B201269D
:100EC000601EC4B206FA04F046B2A81B45B228461A
:100ED000F0BD70B502460C46117B156828780841B4
:100EE0000B461D19EBB2082B0EDB08256E1AF5B266
:100EF0001668761C166016683678AE400643F0B267
:100F0000A3F10806F3B200BF0125A5406D1E2840DD
:100F1000137370BD2DE9F34F85B0054605F16004EC
:100F20002846069900F081F995F96B607A20415DB9
:100F30002046FFF7BCFF02907B20415D2046FFF773
:100F4000B6FF83467C20415D2046FFF7B0FF01904D
:100F500094F90A00002871DD237C06EB0B0149425D
:100F60004AB2A0880299FFF7F1FDA080237C06EB2E
:100F70000B0149424AB2E0880299FFF7FCFDE0808C
:100F8000A788B4F80680B946C246207C30B1012853
:100F90000ED002281AD0032842D12EE094F90A007C
:100FA00048441FFA80F90AEB06001FFA80FA37E07E
:100FB000B81B87B2781C87B209F101001FFA80F9CB
:100FC00094F90A0050441FFA80FA29E094F90A00C3
:100FD000381A87B2781C87B209F101001FFA80F92C
:100FE000A8EB06001FFA80F808F101001FFA80F84C
:100FF0000AF101001FFA80FA12E009EB06001FFA5D
:1010000080F994F90A00A8EB00001FFA80F808F1B3
:1010100001001FFA80F80AF101001FFA80FA00BFF0
:1010200000BF4B46424639462846CDF800A0FFF7A0
:10103000DCFC20B9019807B0BDE8F08F29E0002062
:101040002072607200BF7620415D2046FFF741FFAD
:1010500004907720415D2046FFF73BFF039000BFDF
:1010600000222846049900F016F801222846039928
:1010700000F011F801212046FFF72BFF0028EFD1E7
:1010800094F90900B042DEDB00BF00BFA07B85F809
:1010900092000198CFE72DE9FF5F80468A4693468C
:1010A00008F160045546277A94F8099000BFA67AA3
:1010B000F01BC6B20396B54200DA0395A0880290F1
:1010C000E0880190237C4FFA89F279B20298FFF709
:1010D0003DFD0290237C4FFA89F279B20198FFF727
:1010E0004AFD0190BBF1000F0BD0A07B88F8920065
:1010F000207C00904046DDE90213019AFFF7E8FBEF
:101100000CE0607B50B9E07B88F89200207C009076
:101110004046DDE90213019AFFF7DAFBB54200DA37
:1011200007E0A81BC5B2002709F1010000F0FF0984
:10113000BDE700BF7819C7B278B220724FFA89F0C4
:101140006072BDE8FF9F2DE9F04704460D46164644
:101150001F464FF0000964200553662006533946A8
:10116000204600F00DF88046B8F1000F05D041464A
:101170002046FFF7CFFE1FFA80F94846BDE8F0870A
:101180002DE9F04107460D46BC6D1734FF2D18DCE4
:10119000612D03DB8820C05B044404E0412D02DBA9
:1011A0008620C05B044400BF607800B908E0207866
:1011B000A84202D1A01CBDE8F08160780444F3E7A6
:1011C00025E08A20C05B0444A04600BF00214046C1
:1011D00000F01FF804440221404600F01AF80646C9
:1011E00008F10408AE42F1DB00BF26784FF6FF702D
:1011F00000EA06266078064306B906E0AE4201D151
:10120000E01CD8E7A0780444EFE700BF00BF00204F
:10121000D1E702460A441078521C4FF6FF7303EAE6
:1012200000201378034498B2704770B505460E4607
:1012300005F160042660002020737820415D20467F
:10124000FFF747FE40B2A0727920415D2046FFF7CC
:1012500040FE40B2E07295F89200A073A07B08B9FE
:10126000012000E00020E07370BD00002DE9F04196
:1012700005460E4614461F462C2E13D008DC282E99
:101280000DD0292E11D02A2E0DD02B2E2BD10BE0D4
:101290002D2E0ED04C2E10D04D2E24D118E0FFF75D
:1012A000E1F924E023E022E021E02046FFF736F8D0
:1012B0001DE02046FFF73EF819E024B940210E4812
:1012C000FFF7DAF803E040210B48FFF7D7F80EE00C
:1012D00024B980210848FFF7CFF803E080210648B1
:1012E000FFF7CCF803E0012085F8270000BF00BF1E
:1012F0000120BDE8F0810000000C014010B504465B
:101300000A4B0B4A0B492046FFF7FEFB204600F034
:10131000AEF90021204600F0C6F95A21204600F01F
:10132000B8F92046FFF796FA10BD00006D120008CC
:1013300073170008201B000810B504468A4209DA1A
:10134000A34201DD012010BD9A4201DD0120FAE730
:101350000020F8E7A34205DD9A4201DD0120F2E713
:101360000020F0E70020EEE72DE9F047044689462B
:10137000DDF82080D1B201F00701012606FA01FA5A
:101380000AF0FF060027BC4694F892A0BAF1010FBC
:1013900000DC374694F892A0BAF1010F00D0B446B1
:1013A000154625F00705D4F800A09AF810A00AFB0E
:1013B00005FA1FFA8AF5606B28444844B8F1000F1B
:1013C00014D100BF90F800A04AEA070A80F800A0F4
:1013D00090F800A08AEA0C0A80F800A0401CA3F153
:1013E000010A1FFA8AF3002BECD132E000BF90F81B
:1013F00000A04AEA070A80F800A090F800A08AEA54
:101400000C0A80F800A001F1010A0AF0FF0101F0C6
:101410000701A3F1010A1FFA8AF381B9B4F83AA0CF
:10142000504494F892A0BAF1010F00DC012794F81F
:1014300092A0BAF1010F0AD04FF0010C07E04FEA79
:10144000476A4FEA1A674FEA4C6A4FEA1A6C002B58
:10145000CDD1BDE8F08700000146082008700148A2
:1014600070470000040000202DE9F04104460025EB
:1014700094F8387094F83960206890F8118000BFB3
:1014800032462946204600F00AF8681CC5B2701C96
:10149000C6B2BD4201DA4645F2DBBDE8F0812DE976
:1014A000F84305460E469146286890F81080344669
:1014B0006F6B04FB08F084B24FF6FF7000EAC404BF
:1014C000274443464A4600212846009700F0B6F8D4
:1014D000BDE8F88310B51A3050F81A2C817F4FF60A
:1014E000FF7303EAC1014184117C03EAC101018455
:1014F000C17F03EAC1018184817FC37F1A380B4415
:10150000547CA34204DD537C90F839401B1B99B2F4
:101510004FF6FF7303EAC10130F83E3F4380438832
:10152000838083880B448380938AC380D38A03811A
:101530003E3810BD10B504462046FFF7CBFF10BD66
:1015400010B504462046FFF7C5FF2068808AA4F83E
:1015500046002068C08AA4F8440010BD10B50446B7
:101560002046FFF7B7FF10BD10B504462046FFF731
:10157000B1FF2068808AA4F846002068C08AA4F8D9
:10158000440010BD10B50446002040342081A088DE
:1015900060812088A0816088E081403C2046FFF780
:1015A000FFFA10BD10B5044634F8400F2081608862
:1015B00060810020A081E088E081403C2046FFF768
:1015C000EFFA10BD10B5044600204234E080608878
:1015D000208100206081A08834F84219884205DB10
:1015E0004234A0882188401A6081423C4034E0881F
:1015F0002188401AE081403C2046FFF7D1FA10BD17
:1016000010B5044600204234E080608834F8421966
:10161000884205DB423460882188401AE080423CE1
:101620004034A0882188401A60810020A081E08891
:10163000E081403C2046FFF7B3FA10BD2DE9FC41A4
:1016400004460D4616461F46DDF820808DF80550ED
:101650008DF806608DF80470CDF800806B4601228D
:101660000F212046D4F808C0E047BDE8FC8170B5E2
:10167000044600231A460A212046A568A84770BDE3
:1016800070B5044600231A4610212046A568A847D5
:1016900070BD70B504460D4600232A460E21204633
:1016A000A668B04770BD70B504460D4600232A46B3
:1016B0000B212046A668B04770BD2DE9F0410446D5
:1016C0000D4617461E46DDF81880204600F00AF841
:1016D000A560E7602661C4F81480204600F018F881
:1016E000BDE8F0810021016008498160C1600161AD
:1016F0004161002180F8231080F826108161FF21CC
:1017000080F8241080F8281070470000F51A0008AF
:1017100070B5044600231A4609212046A568A8474B
:1017200070BD024609B10A2902D14FF6FF70704719
:101730000846FCE713B5044601AA0121204600F043
:1017400001F81CBD2DE9F04104460D46164633460E
:101750002A46172120462769B847BDE8F08170B5B1
:1017600004460D4600232A46202120462669B0471C
:1017700070BD2DE9F04106460F4614469846182FD5
:101780001BD004DC142F13D0172F23D104E0192F02
:101790001CD0202F1ED10FE0454606E029783046A8
:1017A000FFF70FF86D1C601EC4B2002CF6DC14E0CD
:1017B0003046FEF786FF10E00FE03046FEF7B9FF37
:1017C00096F824103046FEF7FCFF06E03046FEF7A0
:1017D000CEFF02E00020BDE8F08100BF0120FAE763
:1017E0002DE9F04104460D4616461F46A5F11400AA
:1017F000062826D2DFE800F01A030C151B1C002176
:101800002046FFF7ACFF31462046FFF793FF1AE072
:1018100000212046FFF7A3FF31462046FFF78AFF4D
:1018200011E001212046FFF79AFF00BF00BF00BF73
:101830003B46324629462046D4F810C0E047BDE872
:10184000F0810020FBE700BF0120F8E770B50446F7
:1018500000231A4619212046E568A84770BD70B5D7
:1018600004460D4600232A4616212046E668B04766
:1018700070BD70B504460D4600232A46152120464A
:10188000E668B04770BD2DE9F04104460D461646A6
:1018900033462A4617212046E768B847BDE8F0815D
:1018A000F8B505460C4600BF2678641C182E21D0DA
:1018B00006DC152E09D0162E08D0172E2CD110E0DC
:1018C000192E18D0FE2E27D11CE000BF20780090E2
:1018D00000239DF8002031462846EF68B847641C75
:1018E0001BE0207800906A4601212846FFF7CBFFD5
:1018F000641C12E000BF00231A4631462846EF68F8
:10190000B8470AE0207800909DF800202921284659
:1019100000F0F4F8641C00E0F8BDC5E770B50446BB
:1019200000231A4618212046E568A84770BD70B507
:10193000044600231A46282120466569A84700234B
:101940001A4614212046E568A84701224B2120466B
:1019500000F0D4F8206802792921204600F0CEF862
:1019600000224B21204600F0C9F820680279292185
:10197000204600F0C3F801224B21204600F0BEF8BB
:10198000206842792921204600F0B8F870BD016036
:101990000268927C80F82220704700002DE9F04117
:1019A00005460C4616461F463B463246214628460B
:1019B00000F01EF810B10120BDE8F081092C09D01B
:1019C0000A2C0CD12846FFF7B2FF07492846FFF73B
:1019D00067FF06E005492846FFF7D9FF01E0002030
:1019E000EAE700BF0120E7E7681B0008901C000839
:1019F0002DE9F0470446884615461E46B8F10B0F00
:101A000009D0B8F10D0F11D0B8F10E0F21D0B8F1F7
:101A10000F0F60D12CE025B932492046FFF740FF77
:101A200003E031492046FFF73BFF57E045B92F4916
:101A30002046FFF735FF2068807C84F8220007E00D
:101A40002B492046FFF72CFF2068C07C84F8220039
:101A500044E02046FFF762FF81212046FFF709FF9F
:101A600029462046FFF7FBFE2046FFF7EFFE35E054
:101A70002046FFF753FF7779F806070E94F8220007
:101A80003844C7B240212046FFF7F3FE102040EA59
:101A900027112046FFF7EDFE07F00F012046FFF764
:101AA000DEFEB07940F0B0012046FFF7D8FE00BF5F
:101AB00096F80490D6F800A04FEAC960010E52468D
:101AC0002046FFF7E0FE681EC5B2002DF0DC204680
:101AD000FFF7BCFE02E00020BDE8F08700BF012058
:101AE000FAE70000691C00086E1C0008731C00085F
:101AF0007A1C000810B50446002010BD2DE9F04105
:101B000004460D461646002332462946204667699C
:101B1000B847BDE8F081002180F82610704700002A
:101B20003515000885150008CF0C00084115000880
:101B3000A5150008F30C00085D150008C515000880
:101B4000370D000869150008011600088D0D000802
:101B50003515000885150008930C00083515000898
:101B600085150008DD0D00081815AE15D516801571
:101B7000A8163F15D316001540158D1614152016FE
:101B80000015A115C815DA1612158116CF15D9162C
:101B9000F115DB1640152E15A415A619FF1815AE64
:101BA00015D5168015A8163F15D316001540158DAE
:101BB00016141520160015A115C815DA1612158170
:101BC00016EF15D916A115DB1600152E15A415A6AE
:101BD00019FF1815AE15D5168015A8163F15D31682
:101BE000001540158D16141520160015A115C815E1
:101BF000DA1602158116CF15D916F115DB16401528
:101C00002E15A415A619FF1815AE15A415D5165036
:101C100015A8163F15D31600154015AD168B15D90E
:101C2000162215DB16351532158116FF15A615DAA5
:101C3000161219FF1815AE15D5168015A8163F15E2
:101C4000D316001540158D16141520160015A11574
:101C5000C015DA1612158116CF15D916F115DB1637
:101C600040152E15A415A619FF1815AF19FF181544
:101C7000AE19FF1815A115C819FF1815A015C01920
:101C8000FF1815A115C019FF1815A015C819FF00D8
:101C90000001140A6464323200127A0000042896AB
:101CA00010080000800040000001140A6464323211
:101CB00000093D0000042896100802028000400040
:101CC000E01C000800000020040000006C01000877
:101CD000E41C000804000020640A000088010008D9
:041CE0000000000000
:0400000508000131BD
:00000001FF
